{
	"data": {
		"bytecode": {
			"linkReferences": {},
			"object": "608060405234801561001057600080fd5b50611507806100206000396000f3fe608060405234801561001057600080fd5b506004361061002b5760003560e01c8063f48d772914610030575b600080fd5b61004a60048036038101906100459190611157565b610060565b60405161005791906111a8565b60405180910390f35b600080600167ffffffffffffffff81111561007e5761007d611466565b5b6040519080825280602002602001820160405280156100ac5781602001602082028036833780820191505090505b50905060005b6001811015610105578381600181106100ce576100cd611437565b5b60200201518282815181106100e6576100e5611437565b5b60200260200101818152505080806100fd9061135f565b9150506100b2565b506000610112828661012e565b1415610122576001915050610128565b60009150505b92915050565b6000807f30644e72e131a029b85045b68181585d2833e84879b9709143e1f593f00000019050600061015e6102c5565b9050806080015151600186516101749190611234565b1461017e57600080fd5b60006040518060400160405280600081526020016000815250905060005b865181101561023757838782815181106101b9576101b8611437565b5b6020026020010151106101cb57600080fd5b6102228261021d85608001516001856101e49190611234565b815181106101f5576101f4611437565b5b60200260200101518a85815181106102105761020f611437565b5b60200260200101516106c9565b610770565b9150808061022f9061135f565b91505061019c565b5061026181836080015160008151811061025457610253611437565b5b6020026020010151610770565b90506102a7856000015186602001516102798461083d565b856040015161028b8a6040015161083d565b876060015161029d896000015161083d565b89602001516108e2565b6102b757600193505050506102bf565b600093505050505b92915050565b6102cd610e0a565b60405180604001604052807f0f828c0812f2ddbf3e6db5383847407dae485917c961e82627151087ba94f61f81526020017f065cdb76467de0718514f82d902b02387fa6de22acfa1017e02b056fdaa97d4c8152508160000181905250604051806040016040528060405180604001604052807f1868e4eb77ceedda0efb65f84a9e41130bf9a752454a676d7f125a7cc62b5f7981526020017f098b590a9d445931042c31f26c227a2751454d58f1e5bf9cd1638d6bc85ca3c5815250815260200160405180604001604052807f2ff54b88a187b2434bb910b5ae2fedf6d16ea9cba01305490b0ca63bb692068481526020017f0d1db38704bd87cfdede8e761ed87fb52b7e95069e4dcf41fbee47ae7bd52cba8152508152508160200181905250604051806040016040528060405180604001604052807f0330d5ec7e60e423321e7bee5459552754f21cc8f5d78aa8ce236b3be6c1828e81526020017f0348bf04b458b2aff64fd9d013af18206fa1b60b2e368386779ca9104118b7ff815250815260200160405180604001604052807f079ca397c12aa1606bb2f9778c639dd3b3b3f9a8964262f76f103ad7ac71d17a81526020017f12f7569b13b08e6b09508731535c582c3503f97367f86c8e1ae019045e3e40a88152508152508160400181905250604051806040016040528060405180604001604052807f2db0135074b3830bc5335409b24ccc3d1bbb24b6fa4cfa9fb50c46757f69764381526020017f0a1a51ad69b9d4271687a3c6e5719de2d6fa52113a78453d156d741bedd349ac815250815260200160405180604001604052807f1b1081f6bd6cdd9286598ed811e89a3c93a68cc14f2dfb1e12d2b3fd9116d35881526020017f28e169e4ed750567308b9c799fd45af663131510fe523fc11377d12d5fc304368152508152508160600181905250600267ffffffffffffffff81111561059457610593611466565b5b6040519080825280602002602001820160405280156105cd57816020015b6105ba610e51565b8152602001906001900390816105b25790505b50816080018190525060405180604001604052807f2f26878b93557392a59e1453b465b1d66de0544d7f5e432f8432cc420ff64f9b81526020017f1533791ff085d762823eebcfeeffe8d11b92d9278f050510b1c50832b0548787815250816080015160008151811061064357610642611437565b5b602002602001018190525060405180604001604052807f2fdef709f6250a00c5a85d65ab22e611aaf90d279cf0ce9de5e4349e69ae3e7c81526020017f1ab62344c689ec9e370f3c72d6b0cc659f606c5c607bb5c9c820a7bf010a77e881525081608001516001815181106106bb576106ba611437565b5b602002602001018190525090565b6106d1610e51565b6106d9610e6b565b8360000151816000600381106106f2576106f1611437565b5b60200201818152505083602001518160016003811061071457610713611437565b5b602002018181525050828160026003811061073257610731611437565b5b602002018181525050600060608360808460076107d05a03fa9050806000811461075b5761075d565bfe5b508061076857600080fd5b505092915050565b610778610e51565b610780610e8d565b83600001518160006004811061079957610798611437565b5b6020020181815250508360200151816001600481106107bb576107ba611437565b5b6020020181815250508260000151816002600481106107dd576107dc611437565b5b6020020181815250508260200151816003600481106107ff576107fe611437565b5b602002018181525050600060608360c08460066107d05a03fa905080600081146108285761082a565bfe5b508061083557600080fd5b505092915050565b610845610e51565b60007f30644e72e131a029b85045b68181585d97816a916871ca8d3c208c16d87cfd47905060008360000151148015610882575060008360200151145b156108a65760405180604001604052806000815260200160008152509150506108dd565b6040518060400160405280846000015181526020018285602001516108cb91906113a8565b836108d691906112e4565b8152509150505b919050565b600080600467ffffffffffffffff811115610900576108ff611466565b5b60405190808252806020026020018201604052801561093957816020015b610926610e51565b81526020019060019003908161091e5790505b5090506000600467ffffffffffffffff81111561095957610958611466565b5b60405190808252806020026020018201604052801561099257816020015b61097f610eaf565b8152602001906001900390816109775790505b5090508a826000815181106109aa576109a9611437565b5b602002602001018190525088826001815181106109ca576109c9611437565b5b602002602001018190525086826002815181106109ea576109e9611437565b5b60200260200101819052508482600381518110610a0a57610a09611437565b5b60200260200101819052508981600081518110610a2a57610a29611437565b5b60200260200101819052508781600181518110610a4a57610a49611437565b5b60200260200101819052508581600281518110610a6a57610a69611437565b5b60200260200101819052508381600381518110610a8a57610a89611437565b5b6020026020010181905250610a9f8282610aaf565b9250505098975050505050505050565b60008151835114610abf57600080fd5b6000835190506000600682610ad4919061128a565b905060008167ffffffffffffffff811115610af257610af1611466565b5b604051908082528060200260200182016040528015610b205781602001602082028036833780820191505090505b50905060005b83811015610da557868181518110610b4157610b40611437565b5b602002602001015160000151826000600684610b5d919061128a565b610b679190611234565b81518110610b7857610b77611437565b5b602002602001018181525050868181518110610b9757610b96611437565b5b602002602001015160200151826001600684610bb3919061128a565b610bbd9190611234565b81518110610bce57610bcd611437565b5b602002602001018181525050858181518110610bed57610bec611437565b5b602002602001015160000151600160028110610c0c57610c0b611437565b5b6020020151826002600684610c21919061128a565b610c2b9190611234565b81518110610c3c57610c3b611437565b5b602002602001018181525050858181518110610c5b57610c5a611437565b5b602002602001015160000151600060028110610c7a57610c79611437565b5b6020020151826003600684610c8f919061128a565b610c999190611234565b81518110610caa57610ca9611437565b5b602002602001018181525050858181518110610cc957610cc8611437565b5b602002602001015160200151600160028110610ce857610ce7611437565b5b6020020151826004600684610cfd919061128a565b610d079190611234565b81518110610d1857610d17611437565b5b602002602001018181525050858181518110610d3757610d36611437565b5b602002602001015160200151600060028110610d5657610d55611437565b5b6020020151826005600684610d6b919061128a565b610d759190611234565b81518110610d8657610d85611437565b5b6020026020010181815250508080610d9d9061135f565b915050610b26565b50610dae610ed5565b6000602082602086026020860160086107d05a03fa90508060008114610dd357610dd5565bfe5b5080610de057600080fd5b600082600060018110610df657610df5611437565b5b602002015114159550505050505092915050565b6040518060a00160405280610e1d610e51565b8152602001610e2a610eaf565b8152602001610e37610eaf565b8152602001610e44610eaf565b8152602001606081525090565b604051806040016040528060008152602001600081525090565b6040518060600160405280600390602082028036833780820191505090505090565b6040518060800160405280600490602082028036833780820191505090505090565b6040518060400160405280610ec2610ef7565b8152602001610ecf610ef7565b81525090565b6040518060200160405280600190602082028036833780820191505090505090565b6040518060400160405280600290602082028036833780820191505090505090565b6000610f2c610f27846111e8565b6111c3565b90508082856020860282011115610f4657610f4561149f565b5b60005b85811015610f765781610f5c8882611142565b845260208401935060208301925050600181019050610f49565b5050509392505050565b6000610f93610f8e8461120e565b6111c3565b90508082856020860282011115610fad57610fac61149f565b5b60005b85811015610fdd5781610fc38882611142565b845260208401935060208301925050600181019050610fb0565b5050509392505050565b600082601f830112610ffc57610ffb611495565b5b6001611009848285610f19565b91505092915050565b600082601f83011261102757611026611495565b5b6002611034848285610f80565b91505092915050565b6000604082840312156110535761105261149a565b5b61105d60406111c3565b9050600061106d84828501611142565b600083015250602061108184828501611142565b60208301525092915050565b6000608082840312156110a3576110a261149a565b5b6110ad60406111c3565b905060006110bd84828501611012565b60008301525060406110d184828501611012565b60208301525092915050565b600061010082840312156110f4576110f361149a565b5b6110fe60606111c3565b9050600061110e8482850161103d565b60008301525060406111228482850161108d565b60208301525060c06111368482850161103d565b60408301525092915050565b600081359050611151816114ba565b92915050565b600080610120838503121561116f5761116e6114a4565b5b600061117d858286016110dd565b92505061010061118f85828601610fe7565b9150509250929050565b6111a281611318565b82525050565b60006020820190506111bd6000830184611199565b92915050565b60006111cd6111de565b90506111d9828261132e565b919050565b6000604051905090565b600067ffffffffffffffff82111561120357611202611466565b5b602082029050919050565b600067ffffffffffffffff82111561122957611228611466565b5b602082029050919050565b600061123f82611324565b915061124a83611324565b9250827fffffffffffffffffffffffffffffffffffffffffffffffffffffffffffffffff0382111561127f5761127e6113d9565b5b828201905092915050565b600061129582611324565b91506112a083611324565b9250817fffffffffffffffffffffffffffffffffffffffffffffffffffffffffffffffff04831182151516156112d9576112d86113d9565b5b828202905092915050565b60006112ef82611324565b91506112fa83611324565b92508282101561130d5761130c6113d9565b5b828203905092915050565b60008115159050919050565b6000819050919050565b611337826114a9565b810181811067ffffffffffffffff8211171561135657611355611466565b5b80604052505050565b600061136a82611324565b91507fffffffffffffffffffffffffffffffffffffffffffffffffffffffffffffffff82141561139d5761139c6113d9565b5b600182019050919050565b60006113b382611324565b91506113be83611324565b9250826113ce576113cd611408565b5b828206905092915050565b7f4e487b7100000000000000000000000000000000000000000000000000000000600052601160045260246000fd5b7f4e487b7100000000000000000000000000000000000000000000000000000000600052601260045260246000fd5b7f4e487b7100000000000000000000000000000000000000000000000000000000600052603260045260246000fd5b7f4e487b7100000000000000000000000000000000000000000000000000000000600052604160045260246000fd5b600080fd5b600080fd5b600080fd5b600080fd5b6000601f19601f8301169050919050565b6114c381611324565b81146114ce57600080fd5b5056fea2646970667358221220a39ca012daffdd5e6ce12909424821df8c84b44e9d44c6790b546cd124cc08fc64736f6c63430008070033",
			"opcodes": "PUSH1 0x80 PUSH1 0x40 MSTORE CALLVALUE DUP1 ISZERO PUSH2 0x10 JUMPI PUSH1 0x0 DUP1 REVERT JUMPDEST POP PUSH2 0x1507 DUP1 PUSH2 0x20 PUSH1 0x0 CODECOPY PUSH1 0x0 RETURN INVALID PUSH1 0x80 PUSH1 0x40 MSTORE CALLVALUE DUP1 ISZERO PUSH2 0x10 JUMPI PUSH1 0x0 DUP1 REVERT JUMPDEST POP PUSH1 0x4 CALLDATASIZE LT PUSH2 0x2B JUMPI PUSH1 0x0 CALLDATALOAD PUSH1 0xE0 SHR DUP1 PUSH4 0xF48D7729 EQ PUSH2 0x30 JUMPI JUMPDEST PUSH1 0x0 DUP1 REVERT JUMPDEST PUSH2 0x4A PUSH1 0x4 DUP1 CALLDATASIZE SUB DUP2 ADD SWAP1 PUSH2 0x45 SWAP2 SWAP1 PUSH2 0x1157 JUMP JUMPDEST PUSH2 0x60 JUMP JUMPDEST PUSH1 0x40 MLOAD PUSH2 0x57 SWAP2 SWAP1 PUSH2 0x11A8 JUMP JUMPDEST PUSH1 0x40 MLOAD DUP1 SWAP2 SUB SWAP1 RETURN JUMPDEST PUSH1 0x0 DUP1 PUSH1 0x1 PUSH8 0xFFFFFFFFFFFFFFFF DUP2 GT ISZERO PUSH2 0x7E JUMPI PUSH2 0x7D PUSH2 0x1466 JUMP JUMPDEST JUMPDEST PUSH1 0x40 MLOAD SWAP1 DUP1 DUP3 MSTORE DUP1 PUSH1 0x20 MUL PUSH1 0x20 ADD DUP3 ADD PUSH1 0x40 MSTORE DUP1 ISZERO PUSH2 0xAC JUMPI DUP2 PUSH1 0x20 ADD PUSH1 0x20 DUP3 MUL DUP1 CALLDATASIZE DUP4 CALLDATACOPY DUP1 DUP3 ADD SWAP2 POP POP SWAP1 POP JUMPDEST POP SWAP1 POP PUSH1 0x0 JUMPDEST PUSH1 0x1 DUP2 LT ISZERO PUSH2 0x105 JUMPI DUP4 DUP2 PUSH1 0x1 DUP2 LT PUSH2 0xCE JUMPI PUSH2 0xCD PUSH2 0x1437 JUMP JUMPDEST JUMPDEST PUSH1 0x20 MUL ADD MLOAD DUP3 DUP3 DUP2 MLOAD DUP2 LT PUSH2 0xE6 JUMPI PUSH2 0xE5 PUSH2 0x1437 JUMP JUMPDEST JUMPDEST PUSH1 0x20 MUL PUSH1 0x20 ADD ADD DUP2 DUP2 MSTORE POP POP DUP1 DUP1 PUSH2 0xFD SWAP1 PUSH2 0x135F JUMP JUMPDEST SWAP2 POP POP PUSH2 0xB2 JUMP JUMPDEST POP PUSH1 0x0 PUSH2 0x112 DUP3 DUP7 PUSH2 0x12E JUMP JUMPDEST EQ ISZERO PUSH2 0x122 JUMPI PUSH1 0x1 SWAP2 POP POP PUSH2 0x128 JUMP JUMPDEST PUSH1 0x0 SWAP2 POP POP JUMPDEST SWAP3 SWAP2 POP POP JUMP JUMPDEST PUSH1 0x0 DUP1 PUSH32 0x30644E72E131A029B85045B68181585D2833E84879B9709143E1F593F0000001 SWAP1 POP PUSH1 0x0 PUSH2 0x15E PUSH2 0x2C5 JUMP JUMPDEST SWAP1 POP DUP1 PUSH1 0x80 ADD MLOAD MLOAD PUSH1 0x1 DUP7 MLOAD PUSH2 0x174 SWAP2 SWAP1 PUSH2 0x1234 JUMP JUMPDEST EQ PUSH2 0x17E JUMPI PUSH1 0x0 DUP1 REVERT JUMPDEST PUSH1 0x0 PUSH1 0x40 MLOAD DUP1 PUSH1 0x40 ADD PUSH1 0x40 MSTORE DUP1 PUSH1 0x0 DUP2 MSTORE PUSH1 0x20 ADD PUSH1 0x0 DUP2 MSTORE POP SWAP1 POP PUSH1 0x0 JUMPDEST DUP7 MLOAD DUP2 LT ISZERO PUSH2 0x237 JUMPI DUP4 DUP8 DUP3 DUP2 MLOAD DUP2 LT PUSH2 0x1B9 JUMPI PUSH2 0x1B8 PUSH2 0x1437 JUMP JUMPDEST JUMPDEST PUSH1 0x20 MUL PUSH1 0x20 ADD ADD MLOAD LT PUSH2 0x1CB JUMPI PUSH1 0x0 DUP1 REVERT JUMPDEST PUSH2 0x222 DUP3 PUSH2 0x21D DUP6 PUSH1 0x80 ADD MLOAD PUSH1 0x1 DUP6 PUSH2 0x1E4 SWAP2 SWAP1 PUSH2 0x1234 JUMP JUMPDEST DUP2 MLOAD DUP2 LT PUSH2 0x1F5 JUMPI PUSH2 0x1F4 PUSH2 0x1437 JUMP JUMPDEST JUMPDEST PUSH1 0x20 MUL PUSH1 0x20 ADD ADD MLOAD DUP11 DUP6 DUP2 MLOAD DUP2 LT PUSH2 0x210 JUMPI PUSH2 0x20F PUSH2 0x1437 JUMP JUMPDEST JUMPDEST PUSH1 0x20 MUL PUSH1 0x20 ADD ADD MLOAD PUSH2 0x6C9 JUMP JUMPDEST PUSH2 0x770 JUMP JUMPDEST SWAP2 POP DUP1 DUP1 PUSH2 0x22F SWAP1 PUSH2 0x135F JUMP JUMPDEST SWAP2 POP POP PUSH2 0x19C JUMP JUMPDEST POP PUSH2 0x261 DUP2 DUP4 PUSH1 0x80 ADD MLOAD PUSH1 0x0 DUP2 MLOAD DUP2 LT PUSH2 0x254 JUMPI PUSH2 0x253 PUSH2 0x1437 JUMP JUMPDEST JUMPDEST PUSH1 0x20 MUL PUSH1 0x20 ADD ADD MLOAD PUSH2 0x770 JUMP JUMPDEST SWAP1 POP PUSH2 0x2A7 DUP6 PUSH1 0x0 ADD MLOAD DUP7 PUSH1 0x20 ADD MLOAD PUSH2 0x279 DUP5 PUSH2 0x83D JUMP JUMPDEST DUP6 PUSH1 0x40 ADD MLOAD PUSH2 0x28B DUP11 PUSH1 0x40 ADD MLOAD PUSH2 0x83D JUMP JUMPDEST DUP8 PUSH1 0x60 ADD MLOAD PUSH2 0x29D DUP10 PUSH1 0x0 ADD MLOAD PUSH2 0x83D JUMP JUMPDEST DUP10 PUSH1 0x20 ADD MLOAD PUSH2 0x8E2 JUMP JUMPDEST PUSH2 0x2B7 JUMPI PUSH1 0x1 SWAP4 POP POP POP POP PUSH2 0x2BF JUMP JUMPDEST PUSH1 0x0 SWAP4 POP POP POP POP JUMPDEST SWAP3 SWAP2 POP POP JUMP JUMPDEST PUSH2 0x2CD PUSH2 0xE0A JUMP JUMPDEST PUSH1 0x40 MLOAD DUP1 PUSH1 0x40 ADD PUSH1 0x40 MSTORE DUP1 PUSH32 0xF828C0812F2DDBF3E6DB5383847407DAE485917C961E82627151087BA94F61F DUP2 MSTORE PUSH1 0x20 ADD PUSH32 0x65CDB76467DE0718514F82D902B02387FA6DE22ACFA1017E02B056FDAA97D4C DUP2 MSTORE POP DUP2 PUSH1 0x0 ADD DUP2 SWAP1 MSTORE POP PUSH1 0x40 MLOAD DUP1 PUSH1 0x40 ADD PUSH1 0x40 MSTORE DUP1 PUSH1 0x40 MLOAD DUP1 PUSH1 0x40 ADD PUSH1 0x40 MSTORE DUP1 PUSH32 0x1868E4EB77CEEDDA0EFB65F84A9E41130BF9A752454A676D7F125A7CC62B5F79 DUP2 MSTORE PUSH1 0x20 ADD PUSH32 0x98B590A9D445931042C31F26C227A2751454D58F1E5BF9CD1638D6BC85CA3C5 DUP2 MSTORE POP DUP2 MSTORE PUSH1 0x20 ADD PUSH1 0x40 MLOAD DUP1 PUSH1 0x40 ADD PUSH1 0x40 MSTORE DUP1 PUSH32 0x2FF54B88A187B2434BB910B5AE2FEDF6D16EA9CBA01305490B0CA63BB6920684 DUP2 MSTORE PUSH1 0x20 ADD PUSH32 0xD1DB38704BD87CFDEDE8E761ED87FB52B7E95069E4DCF41FBEE47AE7BD52CBA DUP2 MSTORE POP DUP2 MSTORE POP DUP2 PUSH1 0x20 ADD DUP2 SWAP1 MSTORE POP PUSH1 0x40 MLOAD DUP1 PUSH1 0x40 ADD PUSH1 0x40 MSTORE DUP1 PUSH1 0x40 MLOAD DUP1 PUSH1 0x40 ADD PUSH1 0x40 MSTORE DUP1 PUSH32 0x330D5EC7E60E423321E7BEE5459552754F21CC8F5D78AA8CE236B3BE6C1828E DUP2 MSTORE PUSH1 0x20 ADD PUSH32 0x348BF04B458B2AFF64FD9D013AF18206FA1B60B2E368386779CA9104118B7FF DUP2 MSTORE POP DUP2 MSTORE PUSH1 0x20 ADD PUSH1 0x40 MLOAD DUP1 PUSH1 0x40 ADD PUSH1 0x40 MSTORE DUP1 PUSH32 0x79CA397C12AA1606BB2F9778C639DD3B3B3F9A8964262F76F103AD7AC71D17A DUP2 MSTORE PUSH1 0x20 ADD PUSH32 0x12F7569B13B08E6B09508731535C582C3503F97367F86C8E1AE019045E3E40A8 DUP2 MSTORE POP DUP2 MSTORE POP DUP2 PUSH1 0x40 ADD DUP2 SWAP1 MSTORE POP PUSH1 0x40 MLOAD DUP1 PUSH1 0x40 ADD PUSH1 0x40 MSTORE DUP1 PUSH1 0x40 MLOAD DUP1 PUSH1 0x40 ADD PUSH1 0x40 MSTORE DUP1 PUSH32 0x2DB0135074B3830BC5335409B24CCC3D1BBB24B6FA4CFA9FB50C46757F697643 DUP2 MSTORE PUSH1 0x20 ADD PUSH32 0xA1A51AD69B9D4271687A3C6E5719DE2D6FA52113A78453D156D741BEDD349AC DUP2 MSTORE POP DUP2 MSTORE PUSH1 0x20 ADD PUSH1 0x40 MLOAD DUP1 PUSH1 0x40 ADD PUSH1 0x40 MSTORE DUP1 PUSH32 0x1B1081F6BD6CDD9286598ED811E89A3C93A68CC14F2DFB1E12D2B3FD9116D358 DUP2 MSTORE PUSH1 0x20 ADD PUSH32 0x28E169E4ED750567308B9C799FD45AF663131510FE523FC11377D12D5FC30436 DUP2 MSTORE POP DUP2 MSTORE POP DUP2 PUSH1 0x60 ADD DUP2 SWAP1 MSTORE POP PUSH1 0x2 PUSH8 0xFFFFFFFFFFFFFFFF DUP2 GT ISZERO PUSH2 0x594 JUMPI PUSH2 0x593 PUSH2 0x1466 JUMP JUMPDEST JUMPDEST PUSH1 0x40 MLOAD SWAP1 DUP1 DUP3 MSTORE DUP1 PUSH1 0x20 MUL PUSH1 0x20 ADD DUP3 ADD PUSH1 0x40 MSTORE DUP1 ISZERO PUSH2 0x5CD JUMPI DUP2 PUSH1 0x20 ADD JUMPDEST PUSH2 0x5BA PUSH2 0xE51 JUMP JUMPDEST DUP2 MSTORE PUSH1 0x20 ADD SWAP1 PUSH1 0x1 SWAP1 SUB SWAP1 DUP2 PUSH2 0x5B2 JUMPI SWAP1 POP JUMPDEST POP DUP2 PUSH1 0x80 ADD DUP2 SWAP1 MSTORE POP PUSH1 0x40 MLOAD DUP1 PUSH1 0x40 ADD PUSH1 0x40 MSTORE DUP1 PUSH32 0x2F26878B93557392A59E1453B465B1D66DE0544D7F5E432F8432CC420FF64F9B DUP2 MSTORE PUSH1 0x20 ADD PUSH32 0x1533791FF085D762823EEBCFEEFFE8D11B92D9278F050510B1C50832B0548787 DUP2 MSTORE POP DUP2 PUSH1 0x80 ADD MLOAD PUSH1 0x0 DUP2 MLOAD DUP2 LT PUSH2 0x643 JUMPI PUSH2 0x642 PUSH2 0x1437 JUMP JUMPDEST JUMPDEST PUSH1 0x20 MUL PUSH1 0x20 ADD ADD DUP2 SWAP1 MSTORE POP PUSH1 0x40 MLOAD DUP1 PUSH1 0x40 ADD PUSH1 0x40 MSTORE DUP1 PUSH32 0x2FDEF709F6250A00C5A85D65AB22E611AAF90D279CF0CE9DE5E4349E69AE3E7C DUP2 MSTORE PUSH1 0x20 ADD PUSH32 0x1AB62344C689EC9E370F3C72D6B0CC659F606C5C607BB5C9C820A7BF010A77E8 DUP2 MSTORE POP DUP2 PUSH1 0x80 ADD MLOAD PUSH1 0x1 DUP2 MLOAD DUP2 LT PUSH2 0x6BB JUMPI PUSH2 0x6BA PUSH2 0x1437 JUMP JUMPDEST JUMPDEST PUSH1 0x20 MUL PUSH1 0x20 ADD ADD DUP2 SWAP1 MSTORE POP SWAP1 JUMP JUMPDEST PUSH2 0x6D1 PUSH2 0xE51 JUMP JUMPDEST PUSH2 0x6D9 PUSH2 0xE6B JUMP JUMPDEST DUP4 PUSH1 0x0 ADD MLOAD DUP2 PUSH1 0x0 PUSH1 0x3 DUP2 LT PUSH2 0x6F2 JUMPI PUSH2 0x6F1 PUSH2 0x1437 JUMP JUMPDEST JUMPDEST PUSH1 0x20 MUL ADD DUP2 DUP2 MSTORE POP POP DUP4 PUSH1 0x20 ADD MLOAD DUP2 PUSH1 0x1 PUSH1 0x3 DUP2 LT PUSH2 0x714 JUMPI PUSH2 0x713 PUSH2 0x1437 JUMP JUMPDEST JUMPDEST PUSH1 0x20 MUL ADD DUP2 DUP2 MSTORE POP POP DUP3 DUP2 PUSH1 0x2 PUSH1 0x3 DUP2 LT PUSH2 0x732 JUMPI PUSH2 0x731 PUSH2 0x1437 JUMP JUMPDEST JUMPDEST PUSH1 0x20 MUL ADD DUP2 DUP2 MSTORE POP POP PUSH1 0x0 PUSH1 0x60 DUP4 PUSH1 0x80 DUP5 PUSH1 0x7 PUSH2 0x7D0 GAS SUB STATICCALL SWAP1 POP DUP1 PUSH1 0x0 DUP2 EQ PUSH2 0x75B JUMPI PUSH2 0x75D JUMP JUMPDEST INVALID JUMPDEST POP DUP1 PUSH2 0x768 JUMPI PUSH1 0x0 DUP1 REVERT JUMPDEST POP POP SWAP3 SWAP2 POP POP JUMP JUMPDEST PUSH2 0x778 PUSH2 0xE51 JUMP JUMPDEST PUSH2 0x780 PUSH2 0xE8D JUMP JUMPDEST DUP4 PUSH1 0x0 ADD MLOAD DUP2 PUSH1 0x0 PUSH1 0x4 DUP2 LT PUSH2 0x799 JUMPI PUSH2 0x798 PUSH2 0x1437 JUMP JUMPDEST JUMPDEST PUSH1 0x20 MUL ADD DUP2 DUP2 MSTORE POP POP DUP4 PUSH1 0x20 ADD MLOAD DUP2 PUSH1 0x1 PUSH1 0x4 DUP2 LT PUSH2 0x7BB JUMPI PUSH2 0x7BA PUSH2 0x1437 JUMP JUMPDEST JUMPDEST PUSH1 0x20 MUL ADD DUP2 DUP2 MSTORE POP POP DUP3 PUSH1 0x0 ADD MLOAD DUP2 PUSH1 0x2 PUSH1 0x4 DUP2 LT PUSH2 0x7DD JUMPI PUSH2 0x7DC PUSH2 0x1437 JUMP JUMPDEST JUMPDEST PUSH1 0x20 MUL ADD DUP2 DUP2 MSTORE POP POP DUP3 PUSH1 0x20 ADD MLOAD DUP2 PUSH1 0x3 PUSH1 0x4 DUP2 LT PUSH2 0x7FF JUMPI PUSH2 0x7FE PUSH2 0x1437 JUMP JUMPDEST JUMPDEST PUSH1 0x20 MUL ADD DUP2 DUP2 MSTORE POP POP PUSH1 0x0 PUSH1 0x60 DUP4 PUSH1 0xC0 DUP5 PUSH1 0x6 PUSH2 0x7D0 GAS SUB STATICCALL SWAP1 POP DUP1 PUSH1 0x0 DUP2 EQ PUSH2 0x828 JUMPI PUSH2 0x82A JUMP JUMPDEST INVALID JUMPDEST POP DUP1 PUSH2 0x835 JUMPI PUSH1 0x0 DUP1 REVERT JUMPDEST POP POP SWAP3 SWAP2 POP POP JUMP JUMPDEST PUSH2 0x845 PUSH2 0xE51 JUMP JUMPDEST PUSH1 0x0 PUSH32 0x30644E72E131A029B85045B68181585D97816A916871CA8D3C208C16D87CFD47 SWAP1 POP PUSH1 0x0 DUP4 PUSH1 0x0 ADD MLOAD EQ DUP1 ISZERO PUSH2 0x882 JUMPI POP PUSH1 0x0 DUP4 PUSH1 0x20 ADD MLOAD EQ JUMPDEST ISZERO PUSH2 0x8A6 JUMPI PUSH1 0x40 MLOAD DUP1 PUSH1 0x40 ADD PUSH1 0x40 MSTORE DUP1 PUSH1 0x0 DUP2 MSTORE PUSH1 0x20 ADD PUSH1 0x0 DUP2 MSTORE POP SWAP2 POP POP PUSH2 0x8DD JUMP JUMPDEST PUSH1 0x40 MLOAD DUP1 PUSH1 0x40 ADD PUSH1 0x40 MSTORE DUP1 DUP5 PUSH1 0x0 ADD MLOAD DUP2 MSTORE PUSH1 0x20 ADD DUP3 DUP6 PUSH1 0x20 ADD MLOAD PUSH2 0x8CB SWAP2 SWAP1 PUSH2 0x13A8 JUMP JUMPDEST DUP4 PUSH2 0x8D6 SWAP2 SWAP1 PUSH2 0x12E4 JUMP JUMPDEST DUP2 MSTORE POP SWAP2 POP POP JUMPDEST SWAP2 SWAP1 POP JUMP JUMPDEST PUSH1 0x0 DUP1 PUSH1 0x4 PUSH8 0xFFFFFFFFFFFFFFFF DUP2 GT ISZERO PUSH2 0x900 JUMPI PUSH2 0x8FF PUSH2 0x1466 JUMP JUMPDEST JUMPDEST PUSH1 0x40 MLOAD SWAP1 DUP1 DUP3 MSTORE DUP1 PUSH1 0x20 MUL PUSH1 0x20 ADD DUP3 ADD PUSH1 0x40 MSTORE DUP1 ISZERO PUSH2 0x939 JUMPI DUP2 PUSH1 0x20 ADD JUMPDEST PUSH2 0x926 PUSH2 0xE51 JUMP JUMPDEST DUP2 MSTORE PUSH1 0x20 ADD SWAP1 PUSH1 0x1 SWAP1 SUB SWAP1 DUP2 PUSH2 0x91E JUMPI SWAP1 POP JUMPDEST POP SWAP1 POP PUSH1 0x0 PUSH1 0x4 PUSH8 0xFFFFFFFFFFFFFFFF DUP2 GT ISZERO PUSH2 0x959 JUMPI PUSH2 0x958 PUSH2 0x1466 JUMP JUMPDEST JUMPDEST PUSH1 0x40 MLOAD SWAP1 DUP1 DUP3 MSTORE DUP1 PUSH1 0x20 MUL PUSH1 0x20 ADD DUP3 ADD PUSH1 0x40 MSTORE DUP1 ISZERO PUSH2 0x992 JUMPI DUP2 PUSH1 0x20 ADD JUMPDEST PUSH2 0x97F PUSH2 0xEAF JUMP JUMPDEST DUP2 MSTORE PUSH1 0x20 ADD SWAP1 PUSH1 0x1 SWAP1 SUB SWAP1 DUP2 PUSH2 0x977 JUMPI SWAP1 POP JUMPDEST POP SWAP1 POP DUP11 DUP3 PUSH1 0x0 DUP2 MLOAD DUP2 LT PUSH2 0x9AA JUMPI PUSH2 0x9A9 PUSH2 0x1437 JUMP JUMPDEST JUMPDEST PUSH1 0x20 MUL PUSH1 0x20 ADD ADD DUP2 SWAP1 MSTORE POP DUP9 DUP3 PUSH1 0x1 DUP2 MLOAD DUP2 LT PUSH2 0x9CA JUMPI PUSH2 0x9C9 PUSH2 0x1437 JUMP JUMPDEST JUMPDEST PUSH1 0x20 MUL PUSH1 0x20 ADD ADD DUP2 SWAP1 MSTORE POP DUP7 DUP3 PUSH1 0x2 DUP2 MLOAD DUP2 LT PUSH2 0x9EA JUMPI PUSH2 0x9E9 PUSH2 0x1437 JUMP JUMPDEST JUMPDEST PUSH1 0x20 MUL PUSH1 0x20 ADD ADD DUP2 SWAP1 MSTORE POP DUP5 DUP3 PUSH1 0x3 DUP2 MLOAD DUP2 LT PUSH2 0xA0A JUMPI PUSH2 0xA09 PUSH2 0x1437 JUMP JUMPDEST JUMPDEST PUSH1 0x20 MUL PUSH1 0x20 ADD ADD DUP2 SWAP1 MSTORE POP DUP10 DUP2 PUSH1 0x0 DUP2 MLOAD DUP2 LT PUSH2 0xA2A JUMPI PUSH2 0xA29 PUSH2 0x1437 JUMP JUMPDEST JUMPDEST PUSH1 0x20 MUL PUSH1 0x20 ADD ADD DUP2 SWAP1 MSTORE POP DUP8 DUP2 PUSH1 0x1 DUP2 MLOAD DUP2 LT PUSH2 0xA4A JUMPI PUSH2 0xA49 PUSH2 0x1437 JUMP JUMPDEST JUMPDEST PUSH1 0x20 MUL PUSH1 0x20 ADD ADD DUP2 SWAP1 MSTORE POP DUP6 DUP2 PUSH1 0x2 DUP2 MLOAD DUP2 LT PUSH2 0xA6A JUMPI PUSH2 0xA69 PUSH2 0x1437 JUMP JUMPDEST JUMPDEST PUSH1 0x20 MUL PUSH1 0x20 ADD ADD DUP2 SWAP1 MSTORE POP DUP4 DUP2 PUSH1 0x3 DUP2 MLOAD DUP2 LT PUSH2 0xA8A JUMPI PUSH2 0xA89 PUSH2 0x1437 JUMP JUMPDEST JUMPDEST PUSH1 0x20 MUL PUSH1 0x20 ADD ADD DUP2 SWAP1 MSTORE POP PUSH2 0xA9F DUP3 DUP3 PUSH2 0xAAF JUMP JUMPDEST SWAP3 POP POP POP SWAP9 SWAP8 POP POP POP POP POP POP POP POP JUMP JUMPDEST PUSH1 0x0 DUP2 MLOAD DUP4 MLOAD EQ PUSH2 0xABF JUMPI PUSH1 0x0 DUP1 REVERT JUMPDEST PUSH1 0x0 DUP4 MLOAD SWAP1 POP PUSH1 0x0 PUSH1 0x6 DUP3 PUSH2 0xAD4 SWAP2 SWAP1 PUSH2 0x128A JUMP JUMPDEST SWAP1 POP PUSH1 0x0 DUP2 PUSH8 0xFFFFFFFFFFFFFFFF DUP2 GT ISZERO PUSH2 0xAF2 JUMPI PUSH2 0xAF1 PUSH2 0x1466 JUMP JUMPDEST JUMPDEST PUSH1 0x40 MLOAD SWAP1 DUP1 DUP3 MSTORE DUP1 PUSH1 0x20 MUL PUSH1 0x20 ADD DUP3 ADD PUSH1 0x40 MSTORE DUP1 ISZERO PUSH2 0xB20 JUMPI DUP2 PUSH1 0x20 ADD PUSH1 0x20 DUP3 MUL DUP1 CALLDATASIZE DUP4 CALLDATACOPY DUP1 DUP3 ADD SWAP2 POP POP SWAP1 POP JUMPDEST POP SWAP1 POP PUSH1 0x0 JUMPDEST DUP4 DUP2 LT ISZERO PUSH2 0xDA5 JUMPI DUP7 DUP2 DUP2 MLOAD DUP2 LT PUSH2 0xB41 JUMPI PUSH2 0xB40 PUSH2 0x1437 JUMP JUMPDEST JUMPDEST PUSH1 0x20 MUL PUSH1 0x20 ADD ADD MLOAD PUSH1 0x0 ADD MLOAD DUP3 PUSH1 0x0 PUSH1 0x6 DUP5 PUSH2 0xB5D SWAP2 SWAP1 PUSH2 0x128A JUMP JUMPDEST PUSH2 0xB67 SWAP2 SWAP1 PUSH2 0x1234 JUMP JUMPDEST DUP2 MLOAD DUP2 LT PUSH2 0xB78 JUMPI PUSH2 0xB77 PUSH2 0x1437 JUMP JUMPDEST JUMPDEST PUSH1 0x20 MUL PUSH1 0x20 ADD ADD DUP2 DUP2 MSTORE POP POP DUP7 DUP2 DUP2 MLOAD DUP2 LT PUSH2 0xB97 JUMPI PUSH2 0xB96 PUSH2 0x1437 JUMP JUMPDEST JUMPDEST PUSH1 0x20 MUL PUSH1 0x20 ADD ADD MLOAD PUSH1 0x20 ADD MLOAD DUP3 PUSH1 0x1 PUSH1 0x6 DUP5 PUSH2 0xBB3 SWAP2 SWAP1 PUSH2 0x128A JUMP JUMPDEST PUSH2 0xBBD SWAP2 SWAP1 PUSH2 0x1234 JUMP JUMPDEST DUP2 MLOAD DUP2 LT PUSH2 0xBCE JUMPI PUSH2 0xBCD PUSH2 0x1437 JUMP JUMPDEST JUMPDEST PUSH1 0x20 MUL PUSH1 0x20 ADD ADD DUP2 DUP2 MSTORE POP POP DUP6 DUP2 DUP2 MLOAD DUP2 LT PUSH2 0xBED JUMPI PUSH2 0xBEC PUSH2 0x1437 JUMP JUMPDEST JUMPDEST PUSH1 0x20 MUL PUSH1 0x20 ADD ADD MLOAD PUSH1 0x0 ADD MLOAD PUSH1 0x1 PUSH1 0x2 DUP2 LT PUSH2 0xC0C JUMPI PUSH2 0xC0B PUSH2 0x1437 JUMP JUMPDEST JUMPDEST PUSH1 0x20 MUL ADD MLOAD DUP3 PUSH1 0x2 PUSH1 0x6 DUP5 PUSH2 0xC21 SWAP2 SWAP1 PUSH2 0x128A JUMP JUMPDEST PUSH2 0xC2B SWAP2 SWAP1 PUSH2 0x1234 JUMP JUMPDEST DUP2 MLOAD DUP2 LT PUSH2 0xC3C JUMPI PUSH2 0xC3B PUSH2 0x1437 JUMP JUMPDEST JUMPDEST PUSH1 0x20 MUL PUSH1 0x20 ADD ADD DUP2 DUP2 MSTORE POP POP DUP6 DUP2 DUP2 MLOAD DUP2 LT PUSH2 0xC5B JUMPI PUSH2 0xC5A PUSH2 0x1437 JUMP JUMPDEST JUMPDEST PUSH1 0x20 MUL PUSH1 0x20 ADD ADD MLOAD PUSH1 0x0 ADD MLOAD PUSH1 0x0 PUSH1 0x2 DUP2 LT PUSH2 0xC7A JUMPI PUSH2 0xC79 PUSH2 0x1437 JUMP JUMPDEST JUMPDEST PUSH1 0x20 MUL ADD MLOAD DUP3 PUSH1 0x3 PUSH1 0x6 DUP5 PUSH2 0xC8F SWAP2 SWAP1 PUSH2 0x128A JUMP JUMPDEST PUSH2 0xC99 SWAP2 SWAP1 PUSH2 0x1234 JUMP JUMPDEST DUP2 MLOAD DUP2 LT PUSH2 0xCAA JUMPI PUSH2 0xCA9 PUSH2 0x1437 JUMP JUMPDEST JUMPDEST PUSH1 0x20 MUL PUSH1 0x20 ADD ADD DUP2 DUP2 MSTORE POP POP DUP6 DUP2 DUP2 MLOAD DUP2 LT PUSH2 0xCC9 JUMPI PUSH2 0xCC8 PUSH2 0x1437 JUMP JUMPDEST JUMPDEST PUSH1 0x20 MUL PUSH1 0x20 ADD ADD MLOAD PUSH1 0x20 ADD MLOAD PUSH1 0x1 PUSH1 0x2 DUP2 LT PUSH2 0xCE8 JUMPI PUSH2 0xCE7 PUSH2 0x1437 JUMP JUMPDEST JUMPDEST PUSH1 0x20 MUL ADD MLOAD DUP3 PUSH1 0x4 PUSH1 0x6 DUP5 PUSH2 0xCFD SWAP2 SWAP1 PUSH2 0x128A JUMP JUMPDEST PUSH2 0xD07 SWAP2 SWAP1 PUSH2 0x1234 JUMP JUMPDEST DUP2 MLOAD DUP2 LT PUSH2 0xD18 JUMPI PUSH2 0xD17 PUSH2 0x1437 JUMP JUMPDEST JUMPDEST PUSH1 0x20 MUL PUSH1 0x20 ADD ADD DUP2 DUP2 MSTORE POP POP DUP6 DUP2 DUP2 MLOAD DUP2 LT PUSH2 0xD37 JUMPI PUSH2 0xD36 PUSH2 0x1437 JUMP JUMPDEST JUMPDEST PUSH1 0x20 MUL PUSH1 0x20 ADD ADD MLOAD PUSH1 0x20 ADD MLOAD PUSH1 0x0 PUSH1 0x2 DUP2 LT PUSH2 0xD56 JUMPI PUSH2 0xD55 PUSH2 0x1437 JUMP JUMPDEST JUMPDEST PUSH1 0x20 MUL ADD MLOAD DUP3 PUSH1 0x5 PUSH1 0x6 DUP5 PUSH2 0xD6B SWAP2 SWAP1 PUSH2 0x128A JUMP JUMPDEST PUSH2 0xD75 SWAP2 SWAP1 PUSH2 0x1234 JUMP JUMPDEST DUP2 MLOAD DUP2 LT PUSH2 0xD86 JUMPI PUSH2 0xD85 PUSH2 0x1437 JUMP JUMPDEST JUMPDEST PUSH1 0x20 MUL PUSH1 0x20 ADD ADD DUP2 DUP2 MSTORE POP POP DUP1 DUP1 PUSH2 0xD9D SWAP1 PUSH2 0x135F JUMP JUMPDEST SWAP2 POP POP PUSH2 0xB26 JUMP JUMPDEST POP PUSH2 0xDAE PUSH2 0xED5 JUMP JUMPDEST PUSH1 0x0 PUSH1 0x20 DUP3 PUSH1 0x20 DUP7 MUL PUSH1 0x20 DUP7 ADD PUSH1 0x8 PUSH2 0x7D0 GAS SUB STATICCALL SWAP1 POP DUP1 PUSH1 0x0 DUP2 EQ PUSH2 0xDD3 JUMPI PUSH2 0xDD5 JUMP JUMPDEST INVALID JUMPDEST POP DUP1 PUSH2 0xDE0 JUMPI PUSH1 0x0 DUP1 REVERT JUMPDEST PUSH1 0x0 DUP3 PUSH1 0x0 PUSH1 0x1 DUP2 LT PUSH2 0xDF6 JUMPI PUSH2 0xDF5 PUSH2 0x1437 JUMP JUMPDEST JUMPDEST PUSH1 0x20 MUL ADD MLOAD EQ ISZERO SWAP6 POP POP POP POP POP POP SWAP3 SWAP2 POP POP JUMP JUMPDEST PUSH1 0x40 MLOAD DUP1 PUSH1 0xA0 ADD PUSH1 0x40 MSTORE DUP1 PUSH2 0xE1D PUSH2 0xE51 JUMP JUMPDEST DUP2 MSTORE PUSH1 0x20 ADD PUSH2 0xE2A PUSH2 0xEAF JUMP JUMPDEST DUP2 MSTORE PUSH1 0x20 ADD PUSH2 0xE37 PUSH2 0xEAF JUMP JUMPDEST DUP2 MSTORE PUSH1 0x20 ADD PUSH2 0xE44 PUSH2 0xEAF JUMP JUMPDEST DUP2 MSTORE PUSH1 0x20 ADD PUSH1 0x60 DUP2 MSTORE POP SWAP1 JUMP JUMPDEST PUSH1 0x40 MLOAD DUP1 PUSH1 0x40 ADD PUSH1 0x40 MSTORE DUP1 PUSH1 0x0 DUP2 MSTORE PUSH1 0x20 ADD PUSH1 0x0 DUP2 MSTORE POP SWAP1 JUMP JUMPDEST PUSH1 0x40 MLOAD DUP1 PUSH1 0x60 ADD PUSH1 0x40 MSTORE DUP1 PUSH1 0x3 SWAP1 PUSH1 0x20 DUP3 MUL DUP1 CALLDATASIZE DUP4 CALLDATACOPY DUP1 DUP3 ADD SWAP2 POP POP SWAP1 POP POP SWAP1 JUMP JUMPDEST PUSH1 0x40 MLOAD DUP1 PUSH1 0x80 ADD PUSH1 0x40 MSTORE DUP1 PUSH1 0x4 SWAP1 PUSH1 0x20 DUP3 MUL DUP1 CALLDATASIZE DUP4 CALLDATACOPY DUP1 DUP3 ADD SWAP2 POP POP SWAP1 POP POP SWAP1 JUMP JUMPDEST PUSH1 0x40 MLOAD DUP1 PUSH1 0x40 ADD PUSH1 0x40 MSTORE DUP1 PUSH2 0xEC2 PUSH2 0xEF7 JUMP JUMPDEST DUP2 MSTORE PUSH1 0x20 ADD PUSH2 0xECF PUSH2 0xEF7 JUMP JUMPDEST DUP2 MSTORE POP SWAP1 JUMP JUMPDEST PUSH1 0x40 MLOAD DUP1 PUSH1 0x20 ADD PUSH1 0x40 MSTORE DUP1 PUSH1 0x1 SWAP1 PUSH1 0x20 DUP3 MUL DUP1 CALLDATASIZE DUP4 CALLDATACOPY DUP1 DUP3 ADD SWAP2 POP POP SWAP1 POP POP SWAP1 JUMP JUMPDEST PUSH1 0x40 MLOAD DUP1 PUSH1 0x40 ADD PUSH1 0x40 MSTORE DUP1 PUSH1 0x2 SWAP1 PUSH1 0x20 DUP3 MUL DUP1 CALLDATASIZE DUP4 CALLDATACOPY DUP1 DUP3 ADD SWAP2 POP POP SWAP1 POP POP SWAP1 JUMP JUMPDEST PUSH1 0x0 PUSH2 0xF2C PUSH2 0xF27 DUP5 PUSH2 0x11E8 JUMP JUMPDEST PUSH2 0x11C3 JUMP JUMPDEST SWAP1 POP DUP1 DUP3 DUP6 PUSH1 0x20 DUP7 MUL DUP3 ADD GT ISZERO PUSH2 0xF46 JUMPI PUSH2 0xF45 PUSH2 0x149F JUMP JUMPDEST JUMPDEST PUSH1 0x0 JUMPDEST DUP6 DUP2 LT ISZERO PUSH2 0xF76 JUMPI DUP2 PUSH2 0xF5C DUP9 DUP3 PUSH2 0x1142 JUMP JUMPDEST DUP5 MSTORE PUSH1 0x20 DUP5 ADD SWAP4 POP PUSH1 0x20 DUP4 ADD SWAP3 POP POP PUSH1 0x1 DUP2 ADD SWAP1 POP PUSH2 0xF49 JUMP JUMPDEST POP POP POP SWAP4 SWAP3 POP POP POP JUMP JUMPDEST PUSH1 0x0 PUSH2 0xF93 PUSH2 0xF8E DUP5 PUSH2 0x120E JUMP JUMPDEST PUSH2 0x11C3 JUMP JUMPDEST SWAP1 POP DUP1 DUP3 DUP6 PUSH1 0x20 DUP7 MUL DUP3 ADD GT ISZERO PUSH2 0xFAD JUMPI PUSH2 0xFAC PUSH2 0x149F JUMP JUMPDEST JUMPDEST PUSH1 0x0 JUMPDEST DUP6 DUP2 LT ISZERO PUSH2 0xFDD JUMPI DUP2 PUSH2 0xFC3 DUP9 DUP3 PUSH2 0x1142 JUMP JUMPDEST DUP5 MSTORE PUSH1 0x20 DUP5 ADD SWAP4 POP PUSH1 0x20 DUP4 ADD SWAP3 POP POP PUSH1 0x1 DUP2 ADD SWAP1 POP PUSH2 0xFB0 JUMP JUMPDEST POP POP POP SWAP4 SWAP3 POP POP POP JUMP JUMPDEST PUSH1 0x0 DUP3 PUSH1 0x1F DUP4 ADD SLT PUSH2 0xFFC JUMPI PUSH2 0xFFB PUSH2 0x1495 JUMP JUMPDEST JUMPDEST PUSH1 0x1 PUSH2 0x1009 DUP5 DUP3 DUP6 PUSH2 0xF19 JUMP JUMPDEST SWAP2 POP POP SWAP3 SWAP2 POP POP JUMP JUMPDEST PUSH1 0x0 DUP3 PUSH1 0x1F DUP4 ADD SLT PUSH2 0x1027 JUMPI PUSH2 0x1026 PUSH2 0x1495 JUMP JUMPDEST JUMPDEST PUSH1 0x2 PUSH2 0x1034 DUP5 DUP3 DUP6 PUSH2 0xF80 JUMP JUMPDEST SWAP2 POP POP SWAP3 SWAP2 POP POP JUMP JUMPDEST PUSH1 0x0 PUSH1 0x40 DUP3 DUP5 SUB SLT ISZERO PUSH2 0x1053 JUMPI PUSH2 0x1052 PUSH2 0x149A JUMP JUMPDEST JUMPDEST PUSH2 0x105D PUSH1 0x40 PUSH2 0x11C3 JUMP JUMPDEST SWAP1 POP PUSH1 0x0 PUSH2 0x106D DUP5 DUP3 DUP6 ADD PUSH2 0x1142 JUMP JUMPDEST PUSH1 0x0 DUP4 ADD MSTORE POP PUSH1 0x20 PUSH2 0x1081 DUP5 DUP3 DUP6 ADD PUSH2 0x1142 JUMP JUMPDEST PUSH1 0x20 DUP4 ADD MSTORE POP SWAP3 SWAP2 POP POP JUMP JUMPDEST PUSH1 0x0 PUSH1 0x80 DUP3 DUP5 SUB SLT ISZERO PUSH2 0x10A3 JUMPI PUSH2 0x10A2 PUSH2 0x149A JUMP JUMPDEST JUMPDEST PUSH2 0x10AD PUSH1 0x40 PUSH2 0x11C3 JUMP JUMPDEST SWAP1 POP PUSH1 0x0 PUSH2 0x10BD DUP5 DUP3 DUP6 ADD PUSH2 0x1012 JUMP JUMPDEST PUSH1 0x0 DUP4 ADD MSTORE POP PUSH1 0x40 PUSH2 0x10D1 DUP5 DUP3 DUP6 ADD PUSH2 0x1012 JUMP JUMPDEST PUSH1 0x20 DUP4 ADD MSTORE POP SWAP3 SWAP2 POP POP JUMP JUMPDEST PUSH1 0x0 PUSH2 0x100 DUP3 DUP5 SUB SLT ISZERO PUSH2 0x10F4 JUMPI PUSH2 0x10F3 PUSH2 0x149A JUMP JUMPDEST JUMPDEST PUSH2 0x10FE PUSH1 0x60 PUSH2 0x11C3 JUMP JUMPDEST SWAP1 POP PUSH1 0x0 PUSH2 0x110E DUP5 DUP3 DUP6 ADD PUSH2 0x103D JUMP JUMPDEST PUSH1 0x0 DUP4 ADD MSTORE POP PUSH1 0x40 PUSH2 0x1122 DUP5 DUP3 DUP6 ADD PUSH2 0x108D JUMP JUMPDEST PUSH1 0x20 DUP4 ADD MSTORE POP PUSH1 0xC0 PUSH2 0x1136 DUP5 DUP3 DUP6 ADD PUSH2 0x103D JUMP JUMPDEST PUSH1 0x40 DUP4 ADD MSTORE POP SWAP3 SWAP2 POP POP JUMP JUMPDEST PUSH1 0x0 DUP2 CALLDATALOAD SWAP1 POP PUSH2 0x1151 DUP2 PUSH2 0x14BA JUMP JUMPDEST SWAP3 SWAP2 POP POP JUMP JUMPDEST PUSH1 0x0 DUP1 PUSH2 0x120 DUP4 DUP6 SUB SLT ISZERO PUSH2 0x116F JUMPI PUSH2 0x116E PUSH2 0x14A4 JUMP JUMPDEST JUMPDEST PUSH1 0x0 PUSH2 0x117D DUP6 DUP3 DUP7 ADD PUSH2 0x10DD JUMP JUMPDEST SWAP3 POP POP PUSH2 0x100 PUSH2 0x118F DUP6 DUP3 DUP7 ADD PUSH2 0xFE7 JUMP JUMPDEST SWAP2 POP POP SWAP3 POP SWAP3 SWAP1 POP JUMP JUMPDEST PUSH2 0x11A2 DUP2 PUSH2 0x1318 JUMP JUMPDEST DUP3 MSTORE POP POP JUMP JUMPDEST PUSH1 0x0 PUSH1 0x20 DUP3 ADD SWAP1 POP PUSH2 0x11BD PUSH1 0x0 DUP4 ADD DUP5 PUSH2 0x1199 JUMP JUMPDEST SWAP3 SWAP2 POP POP JUMP JUMPDEST PUSH1 0x0 PUSH2 0x11CD PUSH2 0x11DE JUMP JUMPDEST SWAP1 POP PUSH2 0x11D9 DUP3 DUP3 PUSH2 0x132E JUMP JUMPDEST SWAP2 SWAP1 POP JUMP JUMPDEST PUSH1 0x0 PUSH1 0x40 MLOAD SWAP1 POP SWAP1 JUMP JUMPDEST PUSH1 0x0 PUSH8 0xFFFFFFFFFFFFFFFF DUP3 GT ISZERO PUSH2 0x1203 JUMPI PUSH2 0x1202 PUSH2 0x1466 JUMP JUMPDEST JUMPDEST PUSH1 0x20 DUP3 MUL SWAP1 POP SWAP2 SWAP1 POP JUMP JUMPDEST PUSH1 0x0 PUSH8 0xFFFFFFFFFFFFFFFF DUP3 GT ISZERO PUSH2 0x1229 JUMPI PUSH2 0x1228 PUSH2 0x1466 JUMP JUMPDEST JUMPDEST PUSH1 0x20 DUP3 MUL SWAP1 POP SWAP2 SWAP1 POP JUMP JUMPDEST PUSH1 0x0 PUSH2 0x123F DUP3 PUSH2 0x1324 JUMP JUMPDEST SWAP2 POP PUSH2 0x124A DUP4 PUSH2 0x1324 JUMP JUMPDEST SWAP3 POP DUP3 PUSH32 0xFFFFFFFFFFFFFFFFFFFFFFFFFFFFFFFFFFFFFFFFFFFFFFFFFFFFFFFFFFFFFFFF SUB DUP3 GT ISZERO PUSH2 0x127F JUMPI PUSH2 0x127E PUSH2 0x13D9 JUMP JUMPDEST JUMPDEST DUP3 DUP3 ADD SWAP1 POP SWAP3 SWAP2 POP POP JUMP JUMPDEST PUSH1 0x0 PUSH2 0x1295 DUP3 PUSH2 0x1324 JUMP JUMPDEST SWAP2 POP PUSH2 0x12A0 DUP4 PUSH2 0x1324 JUMP JUMPDEST SWAP3 POP DUP2 PUSH32 0xFFFFFFFFFFFFFFFFFFFFFFFFFFFFFFFFFFFFFFFFFFFFFFFFFFFFFFFFFFFFFFFF DIV DUP4 GT DUP3 ISZERO ISZERO AND ISZERO PUSH2 0x12D9 JUMPI PUSH2 0x12D8 PUSH2 0x13D9 JUMP JUMPDEST JUMPDEST DUP3 DUP3 MUL SWAP1 POP SWAP3 SWAP2 POP POP JUMP JUMPDEST PUSH1 0x0 PUSH2 0x12EF DUP3 PUSH2 0x1324 JUMP JUMPDEST SWAP2 POP PUSH2 0x12FA DUP4 PUSH2 0x1324 JUMP JUMPDEST SWAP3 POP DUP3 DUP3 LT ISZERO PUSH2 0x130D JUMPI PUSH2 0x130C PUSH2 0x13D9 JUMP JUMPDEST JUMPDEST DUP3 DUP3 SUB SWAP1 POP SWAP3 SWAP2 POP POP JUMP JUMPDEST PUSH1 0x0 DUP2 ISZERO ISZERO SWAP1 POP SWAP2 SWAP1 POP JUMP JUMPDEST PUSH1 0x0 DUP2 SWAP1 POP SWAP2 SWAP1 POP JUMP JUMPDEST PUSH2 0x1337 DUP3 PUSH2 0x14A9 JUMP JUMPDEST DUP2 ADD DUP2 DUP2 LT PUSH8 0xFFFFFFFFFFFFFFFF DUP3 GT OR ISZERO PUSH2 0x1356 JUMPI PUSH2 0x1355 PUSH2 0x1466 JUMP JUMPDEST JUMPDEST DUP1 PUSH1 0x40 MSTORE POP POP POP JUMP JUMPDEST PUSH1 0x0 PUSH2 0x136A DUP3 PUSH2 0x1324 JUMP JUMPDEST SWAP2 POP PUSH32 0xFFFFFFFFFFFFFFFFFFFFFFFFFFFFFFFFFFFFFFFFFFFFFFFFFFFFFFFFFFFFFFFF DUP3 EQ ISZERO PUSH2 0x139D JUMPI PUSH2 0x139C PUSH2 0x13D9 JUMP JUMPDEST JUMPDEST PUSH1 0x1 DUP3 ADD SWAP1 POP SWAP2 SWAP1 POP JUMP JUMPDEST PUSH1 0x0 PUSH2 0x13B3 DUP3 PUSH2 0x1324 JUMP JUMPDEST SWAP2 POP PUSH2 0x13BE DUP4 PUSH2 0x1324 JUMP JUMPDEST SWAP3 POP DUP3 PUSH2 0x13CE JUMPI PUSH2 0x13CD PUSH2 0x1408 JUMP JUMPDEST JUMPDEST DUP3 DUP3 MOD SWAP1 POP SWAP3 SWAP2 POP POP JUMP JUMPDEST PUSH32 0x4E487B7100000000000000000000000000000000000000000000000000000000 PUSH1 0x0 MSTORE PUSH1 0x11 PUSH1 0x4 MSTORE PUSH1 0x24 PUSH1 0x0 REVERT JUMPDEST PUSH32 0x4E487B7100000000000000000000000000000000000000000000000000000000 PUSH1 0x0 MSTORE PUSH1 0x12 PUSH1 0x4 MSTORE PUSH1 0x24 PUSH1 0x0 REVERT JUMPDEST PUSH32 0x4E487B7100000000000000000000000000000000000000000000000000000000 PUSH1 0x0 MSTORE PUSH1 0x32 PUSH1 0x4 MSTORE PUSH1 0x24 PUSH1 0x0 REVERT JUMPDEST PUSH32 0x4E487B7100000000000000000000000000000000000000000000000000000000 PUSH1 0x0 MSTORE PUSH1 0x41 PUSH1 0x4 MSTORE PUSH1 0x24 PUSH1 0x0 REVERT JUMPDEST PUSH1 0x0 DUP1 REVERT JUMPDEST PUSH1 0x0 DUP1 REVERT JUMPDEST PUSH1 0x0 DUP1 REVERT JUMPDEST PUSH1 0x0 DUP1 REVERT JUMPDEST PUSH1 0x0 PUSH1 0x1F NOT PUSH1 0x1F DUP4 ADD AND SWAP1 POP SWAP2 SWAP1 POP JUMP JUMPDEST PUSH2 0x14C3 DUP2 PUSH2 0x1324 JUMP JUMPDEST DUP2 EQ PUSH2 0x14CE JUMPI PUSH1 0x0 DUP1 REVERT JUMPDEST POP JUMP INVALID LOG2 PUSH5 0x6970667358 0x22 SLT KECCAK256 LOG3 SWAP13 LOG0 SLT 0xDA SELFDESTRUCT 0xDD 0x5E PUSH13 0xE12909424821DF8C84B44E9D44 0xC6 PUSH26 0xB546CD124CC08FC64736F6C6343000807003300000000000000 "
		},
		"gasEstimates": {
			"creation": {
				"codeDepositCost": "1076600",
				"executionCost": "1120",
				"totalCost": "1077720"
			},
			"external": {
				"verifyTx(((uint256,uint256),(uint256[2],uint256[2]),(uint256,uint256)),uint256[1])": "infinite"
			},
			"internal": {
				"verify(uint256[] memory,struct Verifier.Proof memory)": "infinite",
				"verifyingKey()": "infinite"
			}
		},
		"methodIdentifiers": {
			"verifyTx(((uint256,uint256),(uint256[2],uint256[2]),(uint256,uint256)),uint256[1])": "f48d7729"
		}
	},
	"abi": [
		{
			"inputs": [
				{
					"components": [
						{
							"components": [
								{
									"internalType": "uint256",
									"name": "X",
									"type": "uint256"
								},
								{
									"internalType": "uint256",
									"name": "Y",
									"type": "uint256"
								}
							],
							"internalType": "struct Pairing.G1Point",
							"name": "a",
							"type": "tuple"
						},
						{
							"components": [
								{
									"internalType": "uint256[2]",
									"name": "X",
									"type": "uint256[2]"
								},
								{
									"internalType": "uint256[2]",
									"name": "Y",
									"type": "uint256[2]"
								}
							],
							"internalType": "struct Pairing.G2Point",
							"name": "b",
							"type": "tuple"
						},
						{
							"components": [
								{
									"internalType": "uint256",
									"name": "X",
									"type": "uint256"
								},
								{
									"internalType": "uint256",
									"name": "Y",
									"type": "uint256"
								}
							],
							"internalType": "struct Pairing.G1Point",
							"name": "c",
							"type": "tuple"
						}
					],
					"internalType": "struct Verifier.Proof",
					"name": "proof",
					"type": "tuple"
				},
				{
					"internalType": "uint256[1]",
					"name": "input",
					"type": "uint256[1]"
				}
			],
			"name": "verifyTx",
			"outputs": [
				{
					"internalType": "bool",
					"name": "r",
					"type": "bool"
				}
			],
			"stateMutability": "view",
			"type": "function"
		}
	]
}